export const dummyData = {
    "count":2,
    "next":null,
    "previous":null,
    "results":[
       {
          "safe":"0xab850A24A158Db25a75376fDaa19ef1717cA5F88",
          "to":"0x38147794FF247e5Fc179eDbAE6C37fff88f68C52",
          "value":"0",
          "data":"0xa9059cbb00000000000000000000000037a1fb984316c971fec44c1b8e49be93d382d4b3000000000000000000000000000000000000000000000000002386f26fc10000",
          "operation":0,
          "gasToken":"0x0000000000000000000000000000000000000000",
          "safeTxGas":0,
          "baseGas":0,
          "gasPrice":"0",
          "refundReceiver":"0x0000000000000000000000000000000000000000",
          "nonce":2,
          "executionDate":null,
          "submissionDate":"2024-04-24T11:02:23.615475Z",
          "modified":"2024-04-24T11:02:23.708276Z",
          "blockNumber":null,
          "transactionHash":null,
          "safeTxHash":"0x1f37666dd027a790e1d278c5d2299969c43c2cd13e1a96118ab33356b5bf37b5",
          "proposer":"0x7962eBE98550d53A3608f9caADaCe72ef30De68C",
          "executor":null,
          "isExecuted":false,
          "isSuccessful":null,
          "ethGasPrice":null,
          "maxFeePerGas":null,
          "maxPriorityFeePerGas":null,
          "gasUsed":null,
          "fee":null,
          "origin":"ENSO",
          "dataDecoded":{},
          "confirmationsRequired":2,
          "confirmations":[
             {
                "owner":"0x7962eBE98550d53A3608f9caADaCe72ef30De68C",
                "submissionDate":"2024-04-24T11:02:23.708276Z",
                "transactionHash":null,
                "signature":"0x901ece6c2bd5cf19df55ff14bac62074586d310e49514d72acb7240190ab7ed12101ae10327c993470967b11ff7d08f0c47ddc2b6cd43d4ddf5908b17ef4fbb01b",
                "signatureType":"EOA"
             }
          ],
          "trusted":true,
          "signatures":null
       }
    ],
    "countUniqueNonce":3
 }